<!-- MHonArc v2.1.0 -->
<!--X-Subject: [pgsql&#45;jp: 27026] Re: 表領域の計算方法 -->
<!--X-From: sugita@sra.co.jp -->
<!--X-Date: Wed, 14 Aug 2002 13:13:40 +0900 (JST) -->
<!--X-Message-Id: 20020814.131340.41632555.sugita@sra.co.jp -->
<!--X-ContentType: text/plain -->
<!--X-Reference-Id: 200208130730.g7D7Ubh09856@penguin.bioinfo.sfc.keio.ac.jp -->
<!--X-Reference-Id: 70923d59b4224cd900$NiftyInterway@nifty.ne.jp -->
<!--X-Head-End-->
<HTML>
<HEAD>
<TITLE>[pgsql-jp: 27026] Re: 表領域の計算方法 </TITLE>
<LINK REV="made" HREF="mailto:sugita@sra.co.jp">
</HEAD>
<BODY BGCOLOR="#ffffff">
<!--X-Body-Begin-->
<!--X-User-Header-->
<!--X-User-Header-End-->
<!--X-TopPNI-->
<HR>
[<A HREF="msg00157.html">Date Prev</A>][<A HREF="msg00159.html">Date Next</A>][<A HREF="msg00150.html">Thread Prev</A>][<A HREF="msg00181.html">Thread Next</A>][<A HREF="index.html#00158">Date Index</A>][<A HREF="threads.html#00158">Thread Index</A>]
<!--X-TopPNI-End-->
<!--X-MsgBody-->
<!--X-Subject-Header-Begin-->
<H1>[pgsql-jp: 27026] Re: 表領域の計算方法</H1>
<HR>
<!--X-Subject-Header-End-->
<UL>
<LI><em>From</em>: <A HREF="mailto:sugita@sra.co.jp">sugita@sra.co.jp</A></LI>
<LI><em>Date</em>: Wed, 14 Aug 2002 13:13:40 +0900 (JST)</LI>
<LI><em>Delivered-To</em>: pgsql-jp@ml.postgresql.jp</LI>
<LI><em>List-Archive</em>: &lt;http://ml.postgresql.jp/pipermail/pgsql-jp/&gt;</LI>
<LI><em>List-Help</em>: &lt;mailto:pgsql-jp-request@ml.postgresql.jp?subject=help&gt;</LI>
<LI><em>List-Id</em>: PostgreSQL Japanese Mailing List &lt;pgsql-jp.ml.postgresql.jp&gt;</LI>
<LI><em>List-Post</em>: &lt;mailto:pgsql-jp@ml.postgresql.jp&gt;</LI>
<LI><em>List-Subscribe</em>: &lt;http://ml.postgresql.jp/mailman/listinfo/pgsql-jp&gt;,&lt;mailto:pgsql-jp-request@ml.postgresql.jp?subject=subscribe&gt;</LI>
<LI><em>List-Unsubscribe</em>: &lt;http://ml.postgresql.jp/mailman/listinfo/pgsql-jp&gt;,&lt;mailto:pgsql-jp-request@ml.postgresql.jp?subject=unsubscribe&gt;</LI>
<LI><em>References</em>: &lt;<A HREF="msg00142.html">200208130730.g7D7Ubh09856@penguin.bioinfo.sfc.keio.ac.jp</A>&gt;&lt;<A HREF="msg00150.html">70923d59b4224cd900$NiftyInterway@nifty.ne.jp</A>&gt;</LI>
</UL>
<!--X-Head-Body-Sep-Begin-->
<HR>
<!--X-Head-Body-Sep-End-->
<!--X-Body-of-Message-->
<PRE>
  杉田です。

From: "sasaki" &lt;GSP05271@nifty.com&gt;
Date: Wed, 14 Aug 2002 10:36:34 +0900 (JST)

;;; 下記の資料を見てインデックスサイズの見積もりをしています。
;;; 下記資料の「・インデックスサイズ見積もり」部分で「レコード当たりの
;;; オーバヘッド」の言葉が出ていますが、オーバヘッドはどうやって求めるものでしょう
;;; か？

  インデックスについては、オーバヘッドというよりは、ラインポインタとインデック
スタプルとした方がよかったです。

  インデックスの見積もりの部分は、B 木の索引部とデータの散らばり方を無視してい
て、とても大雑把です。ここも正確にしたいとは考えてはいます。

    <A HREF="http://ml.postgresql.jp/pipermail/pgsql-jp/2002-March/000190.html">http://ml.postgresql.jp/pipermail/pgsql-jp/2002-March/000190.html</A>

  B 木の葉の部分のみ見ると <A HREF="http://candle.pha.pa.us/main/writings/pgsql/performance.pdf">http://candle.pha.pa.us/main/writings/pgsql/performance.pdf</A> 
の 44 ページの Item + A、Item + C、Item + E …、これを pg_filedump で見ると以
下のようになっています。=&gt; の部分から値が分かります。

    ====  インデックスファイルのダンプ (big endian)  ===============
    Block    1 ******************************************************
    &lt;Header&gt; -----
     Block Offset: 0x00002000         Offsets: Lower      32 (0x0020)
     Block Size: 8192                          Upper    8140 (0x1fcc)
     LSN:  logid      0 recoff 0x001bbc14      Special  8176 (0x1ff0)
     Items:    3                   Free Space: 8108
     Length (including item array): 36

      0000: 00000000 001bbc14 0000000b 00201fcc  ............. ..
=&gt;    0010: 1ff02000 3fc8800c 3fb0800c 3f98800c  .. .?...?...?...
      0020: 00000000                             ....            

    &lt;Data&gt; ------ 
=&gt;   Item   1 -- Length:   12  Offset: 8164 (0x1fe4)  Flags: USED
=&gt;    1fe4: 00000000 0001000c 00000001           ............    

     Item   2 -- Length:   12  Offset: 8152 (0x1fd8)  Flags: USED
      1fd8: 00000000 0002000c 00000002           ............    

     Item   3 -- Length:   12  Offset: 8140 (0x1fcc)  Flags: USED
      1fcc: 00000000 0003000c 00000003           ............    


    &lt;Special Section&gt; -----
     BTree Index Section:
      Flags: 0x0003 (LEAF|ROOT)
      Blocks: Previous (0)  Next (0)  Parent (-1)

      1ff0: 00000000 00000000 ffffffff 00030000  ................


    *** End of File Encountered. Last Block Read: 1 ***


Kenji Sugita


</PRE>

<!--X-Body-of-Message-End-->
<!--X-MsgBody-End-->
<!--X-Follow-Ups-->
<HR>
<UL><LI><STRONG>Follow-Ups</STRONG>:
<UL>
<LI><STRONG><A NAME="00181" HREF="msg00181.html">[pgsql-jp: 27049] Re: 表領域の計算方</A></STRONG>
<UL><LI><EM>From:</EM> "sasaki" &lt;GSP05271@nifty.com&gt;</LI></UL></LI>
</UL></LI></UL>
<!--X-Follow-Ups-End-->
<!--X-References-->
<UL><LI><STRONG>References</STRONG>:
<UL>
<LI><STRONG><A NAME="00142" HREF="msg00142.html">[pgsql-jp: 27010] Re: 表領域の計算方法</A></STRONG>
<UL><LI><EM>From:</EM> Satoshi Nagayasu &lt;snaga@snaga.org&gt;</LI></UL></LI>
<LI><STRONG><A NAME="00150" HREF="msg00150.html">[pgsql-jp: 27018] Re: 表領域の計算方法</A></STRONG>
<UL><LI><EM>From:</EM> "sasaki" &lt;GSP05271@nifty.com&gt;</LI></UL></LI>
</UL></LI></UL>
<!--X-References-End-->
<!--X-BotPNI-->
<UL>
<LI>Prev by Date:
<STRONG><A HREF="msg00157.html">[pgsql-jp: 27025] Re: JavaプログラムからUNIX コマンド実行できるか</A></STRONG>
</LI>
<LI>Next by Date:
<STRONG><A HREF="msg00159.html">[pgsql-jp: 27027] Re: 表領域の計算方法</A></STRONG>
</LI>
<LI>Prev by thread:
<STRONG><A HREF="msg00150.html">[pgsql-jp: 27018] Re: 表領域の計算方法</A></STRONG>
</LI>
<LI>Next by thread:
<STRONG><A HREF="msg00181.html">[pgsql-jp: 27049] Re: 表領域の計算方</A></STRONG>
</LI>
<LI>Index(es):
<UL>
<LI><A HREF="index.html#00158"><STRONG>Date</STRONG></A></LI>
<LI><A HREF="threads.html#00158"><STRONG>Thread</STRONG></A></LI>
</UL>
</LI>
</UL>

<!--X-BotPNI-End-->
<!--X-User-Footer-->
<!--X-User-Footer-End-->
</BODY>
</HTML>
